{
  "_format": "hh-sol-artifact-1",
  "contractName": "SacredFlame",
  "sourceName": "contracts/SacredFlame.sol",
  "abi": [
    {
      "inputs": [],
      "stateMutability": "nonpayable",
      "type": "constructor"
    },
    {
      "anonymous": false,
      "inputs": [
        {
          "indexed": true,
          "internalType": "address",
          "name": "igniter",
          "type": "address"
        }
      ],
      "name": "FlameIgnited",
      "type": "event"
    },
    {
      "inputs": [],
      "name": "founder",
      "outputs": [
        {
          "internalType": "address",
          "name": "",
          "type": "address"
        }
      ],
      "stateMutability": "view",
      "type": "function"
    },
    {
      "inputs": [],
      "name": "getFlameStatus",
      "outputs": [
        {
          "internalType": "string",
          "name": "",
          "type": "string"
        }
      ],
      "stateMutability": "view",
      "type": "function"
    }
  ],
  "bytecode": "0x608060405234801561001057600080fd5b50336000806101000a81548173ffffffffffffffffffffffffffffffffffffffff021916908373ffffffffffffffffffffffffffffffffffffffff16021790555060008054906101000a900473ffffffffffffffffffffffffffffffffffffffff1673ffffffffffffffffffffffffffffffffffffffff167f015d63c670ffa1c8ed6d147e973263fc23d1d5e2ff8c7bf00f443d0a17f0f82560405160405180910390a261021c806100c36000396000f3fe608060405234801561001057600080fd5b50600436106100365760003560e01c80634d853ee51461003b5780639fe3620a14610059575b600080fd5b610043610077565b6040516100509190610119565b60405180910390f35b61006161009b565b60405161006e91906101c4565b60405180910390f35b60008054906101000a900473ffffffffffffffffffffffffffffffffffffffff1681565b60606040518060400160405280601a81526020017f5468652053616372656420466c616d6520697320616c6976652e000000000000815250905090565b600073ffffffffffffffffffffffffffffffffffffffff82169050919050565b6000610103826100d8565b9050919050565b610113816100f8565b82525050565b600060208201905061012e600083018461010a565b92915050565b600081519050919050565b600082825260208201905092915050565b60005b8381101561016e578082015181840152602081019050610153565b60008484015250505050565b6000601f19601f8301169050919050565b600061019682610134565b6101a0818561013f565b93506101b0818560208601610150565b6101b98161017a565b840191505092915050565b600060208201905081810360008301526101de818461018b565b90509291505056fea2646970667358221220a1b90941d3cda830dabcb5e51bc088caa12a45ad2c4d6d642e5bb06bd036afe264736f6c63430008130033",
  "linkReferences": {},
  "deployedLinkReferences": {}
}